:0F0CB30005235556575859032B694C6C012A00DD
:060996008B368A37893818
:10099C00120C328F3AE4F539E539C3953A5017AB5E
:1009AC0036AA37A938853982758300120284FF1262
:0609BC000B07053980E283
:0109C2002212
:060EC300E4F593F5942212
:100026007F0E120CE3E4FF120DC8E4FF120D42E44A
:10003600FF120CF3E4FF120D037F03120D517F0133
:04004600120D232252
:1008C7008E168F17C3E517940AE51694005014E4A3
:1008D700FCFDFBFA7901F8C31202C35006751680B6
:1008E700751700E4FF120E0F7F01120E0FE5172494
:0B08F700FFFFE51634FFFE120C7E220E
:10067B00D2EA7FFF1206D0E4FDFF120609E4FF1257
:10068B000A95AF2B120C047F011207BB7F02120BD2
:10069B002B7F011208027F05120BBBE4FF1209C36B
:1006AB007D04E4FF120EA47B007A0079237F0612EF
:1006BB0008897DDC7C05E4FF120AE17F01120ABB8D
:0506CB00D2B9D2AF22FC
:10093800E4FF120E0F7F01120DBC7F03120D607FC2
:10094800227E291208C77F02120CD3E4FF120CC3BF
:100958007F01120E0FE5AD20E7FBE5AD30E7FB2286
:100C5A00E4900020F0A37402F0A3E528F0A3E529AC
:020C6A00F02276
:10019A009000251202F600000383120EC3120938DA
:1001AA00120DA4EFB402F912002612067B7F007E1C
:1001BA0001120EBC900025E0FCA3E0FDA3E0FEA323
:1001CA00E0FFE4FAF9F8EF2401FFEA3EFEE93DFD1B
:1001DA00E83CFC9000251202EA120E93E47F847E2A
:1001EA0003FDFC900025E0F8A3E0F9A3E0FAA3E000
:1001FA00FBC31202D9701D120DE0120ED5EF70FA70
:10020A00120EFD8F28120EFA8F299000251202F67F
:10021A0000000000052AE52AD394024003E4F52AE7
:10022A00742B252AF8E6FF120C0475A404E4F5A43D
:0E023A00120C5A7B017A0079207D04120EB45A
:0E024800751514D2E8AF151515EF70F9C2E860
:100256009000247401F0900024E070030201BE8037
:04026600F50201BEDE
:01026A002271
:03004B0002059615
:10059600C0E0C0F0C083C082C0D075D000C000C02B
:0D05A60001C002C003C004C005C006C007AC
:1005B300120DEC8F08E50830E61A120E39EF700FB2
:1005C3007B017A007900120EED8E2E8F2F80EB9037
:1005D3000024E4F0E50830E505900024E4F0E508A4
:0B05E30030E408900024E4F0120E75D4
:1005EE00D007D006D005D004D003D002D001D00061
:0B05FE00D0D0D082D083D0F0D0E0320B
:0F0D33000000000000EF1F70011E144E70F2222E
:100A1A00AD07AC067FFA7E00120D337FFA7E001214
:100A2A000D337FFA7E00120D337FFA7E00120D33EA
:0A0A3A00ED1D70011C144C70DB224E
:100CC300EF6009E5A3448054F7F5A32253A37722E9
:100C6C00EF5401FFC4333354C0FFE5A354B74FF521
:020C7C00A322B1
:100CD300EF5403FFC454F0FFE5A354C74FF5A32219
:0B0DA400E5AD30E3047F0280027F0118
:010DAF002221
:0C0DB000EF5407FFE5A354F04FF5A32219
:060EC900E5AD5480FF229C
:060ECF00E5AD5440FF22D6
:0C0DBC00EF5407FFE5AD54F84FF5AD22F1
:040EF30043B31022D3
:0B0E0400EF600443B3082253B3F72251
:0E0D6000EF25E05406FFE5B354F94FF5B3223A
:0B0E0F00EF600443B3012253B3FE2246
:100C7E00E5B35406FD53B3F9EFF5B4EEF5B5ED4219
:010C8E00B3B2
:010C8F002242
:10000300E5B35406FD53B3F9AFB5AB077A00EB7B09
:0E00130000FAAFB4EFFBE4ED42B3AE02AF0370
:0100210022BC
:100B4C00E5B35408FD53B3F7AFABAB077A00EB7BBF
:0E0B5C0000FAAFB6EFFBE4ED42B3AE02AF031A
:010B6A002268
:030EF700AFAC227B
:100CE300EF25E025E0543CFFE5D354C34FF5D32271
:0C0DC800EF5403FFE5D354FC4FF5D32299
:0F0D4200EFC4333354C0FFE5D2543F4FF5D222F4
:100CF300EFC43354E05420FFE5D254DF4FF5D22242
:100D0300EF25E025E0541CFFE5D254E34FF5D22252
:100D1300EF25E025E0541CFFE5D254E34FF5D22242
:0C0DD400EF5403FFE5D254FC4FF5D2228F
:0F0D5100EFC4333354C0FFE5D1543F4FF5D122E7
:100D2300EFC43354E05420FFE5D154DF4FF5D12213
:0B0DE0007F0143D380AE071FEE70FAC6
:010DEB0022E5
:030EFA00AFD5224F
:030EFD00AFD4224D
:060ED500E5D35440FF22AA
:100CA200E5D154187E007803CEC313CE13D8F9FFD2
:010CB200221F
:0A0E25008FE7E5E630E1FBAFE722BE
:070EBC00EFF5AFEEF5AF22E8
:080E9300AFAFAEAF8FAF8EAF21
:010E9B002234
:020A95008F16BA
:100A9700E4FF120B888F17E516B40109AF17EF446F
:100AA70001F5178007AF17EF54FEF517AD17E4FFF1
:030AB700120B6BB4
:010ABA002219
:020ABB008F1694
:100ABD00E4FF120B888F17E516B40109AF17EF4449
:100ACD0002F5178007AF17EF54FDF517AD17E4FFCB
:030ADD00120B6B8E
:010AE00022F3
:020802008F164F
:10080400E4FF120B888F17E51614601014601D2482
:10081400027027AF17EF54F7F517801EAF17EF4498
:1008240008F517AF17EF54FBF517800EAF17EF4419
:1008340008F517AF17EF4404F517AD17E4FF120BD3
:010844006B48
:010845002290
:040521008F498D4A27
:10052500E4FF120B888F4BE54924FB602314603DE3
:1005350024027055E54A60047F0080027F01EF5474
:1005450001FFC454F0FFAE4BEE54EF4FF54B80392D
:10055500E54A60047F0080027F01EF5401FFC43348
:1005650054E0FFAE4BEE54DF4FF54B801CE54A607F
:10057500047F0080027F01EF5401FFC4333354C070
:10058500FFAE4BEE54BF4FF54BAD4BE4FF120B6B7B
:010595002243
:0B0DEC007D707F07120B6BEF5470FF4F
:010DF70022D9
:100BA2007D707F07120B6BEF5470F5547F07120BA9
:080BB20088EF540F4254AF54C8
:010BBA002218
:100C90007401A807088002C333D8FCFD7F07120B3C
:020CA0006B22C5
:080E9C00120E7FEF5470FF22DB
:040609008F168D17A4
:10060D007F02120B888F187F01120B888F19E51648
:10061D0024FA5006240760388045AF167401A807E8
:10062D00088002C333D8FC4218E5176011AF167469
:10063D0001A807088002C333D8FC42198021AF16E8
:10064D007401A807088002C333D8FCF45219800F37
:10065D0075183FE517600575193F8003E4F519AD71
:0D066D00187F02120B6BAD197F01120B6B91
:01067A00225D
:0206D0008F1683
:1006D2007F02120B888F177F01120B888F18E51685
:1006E20024FA5006240760248027AF167401A80755
:1006F200088002C333D8FCF45217AF167401A8075E
:10070200088002C333D8FCF452188005E4F517F5CB
:0F07120018AD177F02120B6BAD187F01120B6B26
:0107210022B5
:100889008F168B178A188919E51614600A24FB50EC
:100899001A600424067026120E2F8F1EE516242ACC
:1008A900FFAB17AA18A9191203E022E516240AFFBB
:0E08B900AB17AA18A91912026BFD120B6B22C5
:100902008F458B468A478948E54514600824FB6079
:10091200042406700CAB46AA47A948AF4512004E04
:1009220022E545240AFF120B88AB46AA47A948EFE5
:060932001202B17F012258
:020AE100AB0761
:100AE300EC540FFFC454F0FFAE16EE540F4FF5163F
:100AF300EB540FFFAE16EE54F04FF516AD167F0410
:030B0300120B6B67
:010B060022CC
:100BBB00E4F516EF24FE5403FFAE16EE54FC4FF58E
:080BCB0016AD167F03120B6B3F
:010BD30022FF
:0A0E2F007F03120B88EF2402FF225C
:080EA400EF2411FF120B6B2279
:020327008F3B0A
:100329007F02120B888F3C7F01120B888F3DE53BC2
:1003390014602314603414604914606014607324D9
:100349000560030203D3AF3CEF5401F53EAF3DEF27
:100359005401F53F8079AF3CEFC3135401F53EAF2B
:100369003DEFC3135401F53F8065AF3CEF131354C0
:100379003F5401F53EAF3DEF1313543F5401F53F90
:10038900804DAF3CEF131313541F5401F53EAF3D9D
:10039900EF131313541F5401F53F8033AF3CEFC4DF
:1003A900540F5401F53EAF3DEFC4540F5401F53FCE
:1003B900801DAF3CEFC41354075401F53EAF3DEF28
:1003C900C41354075401F53F8005E4F53EF53FE5B4
:0603D9003F25E0253EFF78
:0103DF0022FB
:060EDB007F08120B8822C3
:100BED007F08120B88EF54F0FFE4C4F854F0C86886
:070BFD00EFC4540F48FF2272
:10072200EF14601914601F14602514602B146031DB
:10073200240570367F11120B888F5580307F12127C
:100742000B888F5580277F13120B888F55801E7F51
:1007520014120B888F5580157F15120B888F5580C8
:0F0762000C7F16120B888F558003E4F555AF55A9
:010771002265
:100C0400E4F516EF547FFFAE16EE54804FF516ADA3
:060C1400167F05120B6BB8
:010C1A0022B7
:020B2B008F1623
:100B2D007F06120B888F17E5165403FF25E0FFAEE5
:0E0B3D0017EE54F94FF517AD177F06120B6B2C
:010B4B002287
:0207BB008F1697
:1007BD007F06120B888F17E516601424FE7020AF8C
:1007CD0017EF4420F517AF17EF54F7F517801EAF4D
:1007DD0017EF54DFF517AF17EF54F7F517800EAF7E
:1007ED0017EF54DFF517AF17EF4408F517AD177F67
:0407FD0006120B6B6A
:0108010022D4
:0A0E39007F17120B88EF5401FF220F
:0C0DF8007F17120B88EFC3135401FF2279
:0D0D8A007F17120B88EFC4540F5401FF2295
:0E0D6E007F17120B88EFC41354075401FF22A5
:100C1B007F17120B88EF5430FFE4C4F854F0C86808
:070C2B00EFC4540F48FF2243
:0A0E43007F17120B88EF5403FF2203
:060EE1007F17120B8822AE
:0A0E4D007F08120B88EF540FFF22FC
:0A0E57007F09120B88EF5401FF22FF
:0100220022BB
:0C0D9700EF543FF556AD567F1C120B6B5D
:010DA300222D
:0209C3008F168D
:1009C5007F1D120B888F17E51660047F0180027F5B
:1009D50000EF5401FF25E025E0FFAE17EE54FB4F75
:0909E500F517AD177F1D120B6B15
:0109EE0022E6
:020A44008F4CD5
:100A46007F1D120B888F4DE54C60047F0180027F6D
:100A560000EF5401FF25E0FFAE4DEE54FD4FF54D7E
:070A6600AD4D7F1D120B6B6B
:010A6D002266
:020A6E008F4EA9
:100A70007F1D120B888F4FE54E60047F0180027F3F
:100A800000EF5401FFAE4FEE54FE4FF54FAD4F7FD8
:040A90001D120B6BBD
:010A9400223F
:080EAC008D1E7FA01203E0225D
:080EB4008D1E7FB01203E02245
:0B0E1A00EF44A8FF85441E1203E022F5
:060EE7007F60120B88225F
:060EED007F0812004E22F6
:0E0D7C00120E7FEF540EFFE4C313EF13FF229D
:0A0E6100C2E97FE3120E25D2E92258
:100C4700120EE17E00EF54407806CEC313CE13D8C0
:030C5700F9FF2280
:0A0E6B00C2E97FE2120E25D2E9224F
:0A0E7500C2E97FE1120E25D2E92246
:090E7F00C2E97FFF120E25D2E941
:010E88002247
:0209EF008F5027
:1009F1007F06120B888F51E55060047F0180027FD2
:100A010000EF5401FFC454F0FFAE51EE54EF4FF527
:080A110051AD517F06120B6B81
:010A190022BA
:020968008F52AC
:10096A007F06120B888F53E55260047F0180027F55
:10097A0000EF5401FFC43333335480FFAE53EE54B7
:0B098A007F4FF553AD537F06120B6B3F
:01099500223F
:100B8800C2E98FE7E5E6540260FAAFE7E4F5E7E586
:090B9800E6540260FAAFE7D2E96D
:010BA1002231
:100B6B00C2E9EF2420F5E7E5E6540260FAAFE78D22
:0C0B7B00E7E5E6540260FA85E71AD2E9CB
:010B8700224B
:08004E008F098B0A8A0B890C53
:10005600751101850A0FE50914600C24FB6008245C
:10006600FE601724087036120E2F8F0D8F0EC2E910
:10007600E509240AFF120E258028120D7C8F09E55A
:1000860009C394075010120EE78F0D8F0EC2E97F39
:1000960061120E25800CE4F50EF50D8005E4F50ED3
:0600A600F50DE50F702BC3
:1000AC00850C12E4F5E7E5117008A812A6100512EC
:1000BC008003E4F511E5E6540260FA85E710150DAE
:0800CC00E50D70DFA812A6107B
:0900D400020191E50F6401703D89
:1000DD00850B12850C13E4F5E7E51170138513827A
:1000ED00851283E510F00513E513700205128003E8
:1000FD00E4F511E5E6540260FA85E710150DE50DFE
:0B010D0070D4851382851283E510F08A
:080118008077E50F64FE702CF6
:10012000850C12E4F5E7E5117009A812E510F20557
:10013000128003E4F511E5E6540260FA85E7101534
:0A0140000DE50D70DEA812E510F2C7
:02014A008045EE
:10014C00850A12850B13850C14E4F5E7E51170187C
:10015C00AB12AA13A914E5101202B174012514F5FF
:10016C0014E43513F5138003E4F511E5E65402604D
:10017C00FA85E710150DE50D70CFAB12AA13A91473
:05018C00E5101202B1B4
:08019100D2E9E509FEE50EFFCD
:010199002243
:0603E0008B1B8A1C891D25
:0903E600AD1BC2E98FE7ED701CAC
:1003EF00851D20A820E6FE0520E5E6540260FA856B
:0A03FF00E71F8EE7151EE51E70E9EA
:07040900807EED6401702903
:10041000851C20851D21852182852083E0FE052104
:10042000E52170020520E5E6540260FA85E71F8E9B
:07043000E7151EE51E70DF59
:070437008050ED64FE701C13
:10043E00851D20A820E2FE0520E5E6540260FA851F
:0A044E00E71F8EE7151EE51E70E99A
:02045800802FF3
:10045A00851B20851C21851D22AB20AA21A92212D9
:10046A00026BFE74012522F522E43521F521E5E629
:0F047A00540260FA85E71F8EE7151EE51E70DA43
:0B048900E5E6540260FA85E71FD2E9A7
:010494002245
:030023000207725F
:10077200C0E0C0D075D000C000309819C298E530F2
:10078200C39420501074572534F8A699E5340454C4
:100792001FF534053030991AC299E531D3940140DE
:1007A2000F74772533F8E6F599E53304541FF533D2
:0907B2001531D000D0D0D0E032A6
:10084600C2ACE4F533F535F531F532F534F530D291
:100856009CC29FD29E43878043D880EF24FC6013BE
:1008660024FE60091470127C037DF780107C037DE2
:10087600F3800A7C037DCC80047C037DE68DAAECA4
:02088600F5BAC1
:01088800224D
:100B0700E531D3942050F9C2ACE53170048F998058
:100B17000E74772535F8A607E53504541FF5350516
:040B270031D2AC22F9
:030F0000AF3022ED
:0A0E8900E53170037F01227F002293
:100BD400E53060FCC2AC74572532F8E6FFE5320418
:080BE400541FF5321530D2ACAC
:010BEC0022E6
:0300000002049562
:0C049500787FE4F6D8FD7581960204DC47
:10026B00BB010689828A83E0225002E722BBFE0291
:09027B00E32289828A83E49322C4
:10028400BB010CE58229F582E5833AF583E022502F
:1002940006E92582F8E622BBFE06E92582F8E22279
:0D02A400E58229F582E5833AF583E4932293
:1002B100BB010689828A83F0225002F722BBFE012C
:0202C100F32226
:1002C300EB9FF5F0EA9E42F0E99D42F0EC6480C8B2
:0602D30064809845F02252
:1002D900EB9FF5F0EA9E42F0E99D42F0E89C45F07B
:0102E90022F2
:0C02EA00ECF0A3EDF0A3EEF0A3EFF02287
:1002F600A8828583F0D083D08212030D12030D12DB
:10030600030D12030DE473E493A3C583C5F0C583FF
:10031600C8C582C8F0A3C583C5F0C583C8C582C851
:0103260022B4
:100C3200E4FFFE12026B600C0FEF70010E09E97007
:050C4200F20A80EF2220
:1004A10002019AE493A3F8E493A34003F68001F2D6
:1004B10008DFF48029E493A3F85407240CC8C3335C
:1004C100C4540F4420C8834004F456800146F6DF2B
:1004D100E4800B0102040810204080900CB3E47EFC
:1004E100019360BCA3FF543F30E509541FFEE49320
:1004F100A360010ECF54C025E060A840B8E493A3E7
:10050100FAE493A3F8E493A3C8C582C8CAC583CA11
:10051100F0A3C8C582C8CAC583CADFE9DEE780BEC9
:010CC2000031
:00000001FF
