:0F0CE80005235556575859032B694C6C012A00A8
:0609C7008B368A378938E7
:1009CD00120C798F3AE4F539E539C3953A5017ABE6
:1009DD0036AA37A938853982758300120284FF1231
:0609ED000B38053980E221
:0109F30022E1
:100C6300759460E4F5937590FF759FD5759FD65382
:060C730080FB5380FD220E
:100026007F0E120D18E4FF120DFDE4FF120D77E4AA
:10003600FF120D28E4FF120D387F03120D867F0193
:04004600120D58221D
:1008C7008E168F17C3E517940AE51694005014E4A3
:1008D700FCFDFBFA7901F8C31202C35006751680B6
:1008E700751700E4FF120E447F01120E44E517242A
:0B08F700FFFFE51634FFFE120CB322D9
:10067B00D2EA7FFF1206D0E4FDFF120609E4FF1257
:10068B000AC6AF2B120C357F011207BB7F03120B6F
:10069B005C7F011208027F05120BECE4FF1209F4D8
:1006AB007D04E4FF120ED97B007A0079237F0612BA
:1006BB0008897DDC7C05E4FF120B127F01120AEC2A
:0506CB00D2B9D2AF22FC
:10096900E4FF120E447F01120DF17F03120D957FF2
:10097900E27E291208C77F02120D08E4FF120CF863
:100989007F01120E44E5AD20E7FBE5AD30E7FB2220
:10093800439060E59020E5089000207402F0801252
:10094800E59020E6089000207403F08005E490000C
:1009580020F09000217403F0A3E528F0A3E529F026
:01096800226C
:10019A009000251202F600002A2F120C6312096938
:1001AA00120DD9EFB402F912002612067B7F007EE7
:1001BA0001120EF1900025E0FCA3E0FDA3E0FEA3EE
:1001CA00E0FFE4FAF9F8EF2401FFEA3EFEE93DFD1B
:1001DA00E83CFC9000251202EA120EC8E47F307E49
:1001EA002AFDFC900025E0F8A3E0F9A3E0FAA3E0D9
:1001FA00FBC31202D9701D120E15120F04EF70FA0A
:10020A00120F2C8F28120F298F299000251202F61F
:10021A0000000000052AE52AD394024003E4F52AE7
:10022A00742B252AF8E6FF120C3575A404E4F5A40C
:0E023A001209387B017A0079207D04120EE94A
:0E024800751514D2E8AF151515EF70F9C2E860
:100256009000247401F0900024E070030201BE8037
:04026600F50201BEDE
:01026A002271
:03004B0002059615
:10059600C0E0C0F0C083C082C0D075D000C000C02B
:0D05A60001C002C003C004C005C006C007AC
:1005B300120E218F08E50830E61A120E6EEF700F47
:1005C3007B017A007900120F1C8E2E8F2F80EB9007
:1005D3000024E4F0E50830E505900024E4F0E508A4
:0B05E30030E408900024E4F0120EAA9F
:1005EE00D007D006D005D004D003D002D001D00061
:0B05FE00D0D0D082D083D0F0D0E0320B
:0F0D68000000000000EF1F70011E144E70F222F9
:100A4B00AD07AC067FFA7E00120D687FFA7E0012AE
:100A5B000D687FFA7E00120D687FFA7E00120D681A
:0A0A6B00ED1D70011C144C70DB221D
:100CF800EF6009E5A3448054F7F5A32253A37722B4
:100CA100EF5401FFC4333354C0FFE5A354B74FF5EC
:020CB100A3227C
:100D0800EF5403FFC454F0FFE5A354C74FF5A322E3
:0B0DD900E5AD30E3047F0280027F01E3
:010DE40022EC
:0C0DE500EF5407FFE5A354F04FF5A322E4
:060EF800E5AD5480FF226D
:060EFE00E5AD5440FF22A7
:0C0DF100EF5407FFE5AD54F84FF5AD22BC
:040F220043B31022A3
:0B0E3900EF600443B3082253B3F7221C
:0E0D9500EF25E05406FFE5B354F94FF5B32205
:0B0E4400EF600443B3012253B3FE2211
:100CB300E5B35406FD53B3F9EFF5B4EEF5B5ED42E4
:010CC300B37D
:010CC400220D
:10000300E5B35406FD53B3F9AFB5AB077A00EB7B09
:0E00130000FAAFB4EFFBE4ED42B3AE02AF0370
:0100210022BC
:100B7D00E5B35408FD53B3F7AFABAB077A00EB7B8E
:0E0B8D0000FAAFB6EFFBE4ED42B3AE02AF03E9
:010B9B002237
:030F2600AFAC224B
:100D1800EF25E025E0543CFFE5D354C34FF5D3223B
:0C0DFD00EF5403FFE5D354FC4FF5D32264
:0F0D7700EFC4333354C0FFE5D2543F4FF5D222BF
:100D2800EFC43354E05420FFE5D254DF4FF5D2220C
:100D3800EF25E025E0541CFFE5D254E34FF5D2221D
:100D4800EF25E025E0541CFFE5D254E34FF5D2220D
:0C0E0900EF5403FFE5D254FC4FF5D22259
:0F0D8600EFC4333354C0FFE5D1543F4FF5D122B2
:100D5800EFC43354E05420FFE5D154DF4FF5D122DE
:0B0E15007F0143D380AE071FEE70FA90
:010E200022AF
:030F2900AFD5221F
:030F2C00AFD4221D
:060F0400E5D35440FF227A
:100CD700E5D154187E007803CEC313CE13D8F9FF9D
:010CE70022EA
:0A0E5A008FE7E5E630E1FBAFE72289
:070EF100EFF5AFEEF5AF22B3
:080EC800AFAFAEAF8FAF8EAFEC
:010ED00022FF
:020AC6008F1689
:100AC800E4FF120BB98F17E516B40109AF17EF440D
:100AD80001F5178007AF17EF54FEF517AD17E4FFC0
:030AE800120B9C52
:010AEB0022E8
:020AEC008F1663
:100AEE00E4FF120BB98F17E516B40109AF17EF44E7
:100AFE0002F5178007AF17EF54FDF517AD17E4FF9A
:030B0E00120B9C2B
:010B110022C1
:020802008F164F
:10080400E4FF120BB98F17E51614601014601D2451
:10081400027027AF17EF54F7F517801EAF17EF4498
:1008240008F517AF17EF54FBF517800EAF17EF4419
:1008340008F517AF17EF4404F517AD17E4FF120BD3
:010844009C17
:010845002290
:040521008F498D4A27
:10052500E4FF120BB98F4BE54924FB602314603DB2
:1005350024027055E54A60047F0080027F01EF5474
:1005450001FFC454F0FFAE4BEE54EF4FF54B80392D
:10055500E54A60047F0080027F01EF5401FFC43348
:1005650054E0FFAE4BEE54DF4FF54B801CE54A607F
:10057500047F0080027F01EF5401FFC4333354C070
:10058500FFAE4BEE54BF4FF54BAD4BE4FF120B9C4A
:010595002243
:0B0E21007D707F07120B9CEF5470FFE8
:010E2C0022A3
:100BD3007D707F07120B9CEF5470F5547F07120B47
:080BE300B9EF540F4254AF5466
:010BEB0022E7
:100CC5007401A807088002C333D8FCFD7F07120B07
:020CD5009C225F
:080ED100120EB4EF5470FF2271
:040609008F168D17A4
:10060D007F02120BB98F187F01120BB98F19E516E6
:10061D0024FA5006240760388045AF167401A807E8
:10062D00088002C333D8FC4218E5176011AF167469
:10063D0001A807088002C333D8FC42198021AF16E8
:10064D007401A807088002C333D8FCF45219800F37
:10065D0075183FE517600575193F8003E4F519AD71
:0D066D00187F02120B9CAD197F01120B9C2F
:01067A00225D
:0206D0008F1683
:1006D2007F02120BB98F177F01120BB98F18E51623
:1006E20024FA5006240760248027AF167401A80755
:1006F200088002C333D8FCF45217AF167401A8075E
:10070200088002C333D8FCF452188005E4F517F5CB
:0F07120018AD177F02120B9CAD187F01120B9CC4
:0107210022B5
:100889008F168B178A188919E51614600A24FB50EC
:100899001A600424067026120E648F1EE516242A97
:1008A900FFAB17AA18A9191203E022E516240AFFBB
:0E08B900AB17AA18A91912026BFD120B9C2294
:100902008F458B468A478948E54514600824FB6079
:10091200042406700CAB46AA47A948AF4512004E04
:1009220022E545240AFF120BB9AB46AA47A948EFB4
:060932001202B17F012258
:020B1200AB072F
:100B1400EC540FFFC454F0FFAE16EE540F4FF5160D
:100B2400EB540FFFAE16EE54F04FF516AD167F04DE
:030B3400120B9C05
:010B3700229B
:100BEC00E4F516EF24FE5403FFAE16EE54FC4FF55D
:080BFC0016AD167F03120B9CDD
:010C040022CD
:0A0E64007F03120BB9EF2402FF22F6
:080ED900EF2411FF120B9C2213
:020327008F3B0A
:100329007F02120BB98F3C7F01120BB98F3DE53B60
:1003390014602314603414604914606014607324D9
:100349000560030203D3AF3CEF5401F53EAF3DEF27
:100359005401F53F8079AF3CEFC3135401F53EAF2B
:100369003DEFC3135401F53F8065AF3CEF131354C0
:100379003F5401F53EAF3DEF1313543F5401F53F90
:10038900804DAF3CEF131313541F5401F53EAF3D9D
:10039900EF131313541F5401F53F8033AF3CEFC4DF
:1003A900540F5401F53EAF3DEFC4540F5401F53FCE
:1003B900801DAF3CEFC41354075401F53EAF3DEF28
:1003C900C41354075401F53F8005E4F53EF53FE5B4
:0603D9003F25E0253EFF78
:0103DF0022FB
:060F0A007F08120BB92262
:100C1E007F08120BB9EF54F0FFE4C4F854F0C86823
:070C2E00EFC4540F48FF2240
:10072200EF14601914601F14602514602B146031DB
:10073200240570367F11120BB98F5580307F12124B
:100742000BB98F5580277F13120BB98F55801E7FEF
:1007520014120BB98F5580157F15120BB98F558066
:0F0762000C7F16120BB98F558003E4F555AF5578
:010771002265
:100C3500E4F516EF547FFFAE16EE54804FF516AD72
:060C4500167F05120B9C56
:010C4B002286
:020B5C008F16F2
:100B5E007F06120BB98F17E5165403FF25E0FFAE83
:0E0B6E0017EE54F94FF517AD177F06120B9CCA
:010B7C002256
:0207BB008F1697
:1007BD007F06120BB98F17E516601424FE7020AF5B
:1007CD0017EF4420F517AF17EF54F7F517801EAF4D
:1007DD0017EF54DFF517AF17EF54F7F517800EAF7E
:1007ED0017EF54DFF517AF17EF4408F517AD177F67
:0407FD0006120B9C39
:0108010022D4
:0A0E6E007F17120BB9EF5401FF22A9
:0C0E2D007F17120BB9EFC3135401FF2212
:0D0DBF007F17120BB9EFC4540F5401FF222F
:0E0DA3007F17120BB9EFC41354075401FF223F
:100C4C007F17120BB9EF5430FFE4C4F854F0C868A6
:070C5C00EFC4540F48FF2212
:0A0E78007F17120BB9EF5403FF229D
:060F10007F17120BB9224D
:0A0E82007F08120BB9EF540FFF2296
:0A0E8C007F09120BB9EF5401FF2299
:0100220022BB
:0C0DCC00EF543FF556AD567F1C120B9CF7
:010DD80022F8
:0209F4008F165C
:1009F6007F1D120BB98F17E51660047F0180027FF9
:100A060000EF5401FF25E025E0FFAE17EE54FB4F43
:090A1600F517AD177F1D120B9CB2
:010A1F0022B4
:020A75008F4CA4
:100A77007F1D120BB98F4DE54C60047F0180027F0B
:100A870000EF5401FF25E0FFAE4DEE54FD4FF54D4D
:070A9700AD4D7F1D120B9C09
:010A9E002235
:020A9F008F4E78
:100AA1007F1D120BB98F4FE54E60047F0180027FDD
:100AB10000EF5401FFAE4FEE54FE4FF54FAD4F7FA7
:040AC1001D120B9C5B
:010AC500220E
:080EE1008D1E7FA01203E02228
:080EE9008D1E7FB01203E02210
:0B0E4F00EF44A8FF85441E1203E022C0
:060F16007F60120BB922FE
:060F1C007F0812004E22C6
:0E0DB100120EB4EF540EFFE4C313EF13FF2233
:0A0E9600C2E97FE3120E5AD2E922EE
:100C8E00120F107E00EF54407806CEC313CE13D849
:030C9E00F9FF2239
:0A0EA000C2E97FE2120E5AD2E922E5
:0A0EAA00C2E97FE1120E5AD2E922DC
:090EB400C2E97FFF120E5AD2E9D7
:010EBD002212
:020A20008F50F5
:100A22007F06120BB98F51E55060047F0180027F6F
:100A320000EF5401FFC454F0FFAE51EE54EF4FF5F6
:080A420051AD517F06120B9C1F
:010A4A002289
:020999008F527B
:10099B007F06120BB98F53E55260047F0180027FF3
:1009AB0000EF5401FFC43333335480FFAE53EE5486
:0B09BB007F4FF553AD537F06120B9CDD
:0109C600220E
:100BB900C2E98FE7E5E6540260FAAFE7E4F5E7E555
:090BC900E6540260FAAFE7D2E93C
:010BD2002200
:100B9C00C2E9EF2420F5E7E5E6540260FAAFE78DF1
:0C0BAC00E7E5E6540260FA85E71AD2E99A
:010BB800221A
:08004E008F098B0A8A0B890C53
:10005600751101850A0FE50914600C24FB6008245C
:10006600FE601724087036120E648F0D8F0EC2E9DB
:10007600E509240AFF120E5A8028120DB18F09E5F0
:1000860009C394075010120F168F0D8F0EC2E97F09
:1000960061120E5A800CE4F50EF50D8005E4F50E9E
:0600A600F50DE50F702BC3
:1000AC00850C12E4F5E7E5117008A812A6100512EC
:1000BC008003E4F511E5E6540260FA85E710150DAE
:0800CC00E50D70DFA812A6107B
:0900D400020191E50F6401703D89
:1000DD00850B12850C13E4F5E7E51170138513827A
:1000ED00851283E510F00513E513700205128003E8
:1000FD00E4F511E5E6540260FA85E710150DE50DFE
:0B010D0070D4851382851283E510F08A
:080118008077E50F64FE702CF6
:10012000850C12E4F5E7E5117009A812E510F20557
:10013000128003E4F511E5E6540260FA85E7101534
:0A0140000DE50D70DEA812E510F2C7
:02014A008045EE
:10014C00850A12850B13850C14E4F5E7E51170187C
:10015C00AB12AA13A914E5101202B174012514F5FF
:10016C0014E43513F5138003E4F511E5E65402604D
:10017C00FA85E710150DE50D70CFAB12AA13A91473
:05018C00E5101202B1B4
:08019100D2E9E509FEE50EFFCD
:010199002243
:0603E0008B1B8A1C891D25
:0903E600AD1BC2E98FE7ED701CAC
:1003EF00851D20A820E6FE0520E5E6540260FA856B
:0A03FF00E71F8EE7151EE51E70E9EA
:07040900807EED6401702903
:10041000851C20851D21852182852083E0FE052104
:10042000E52170020520E5E6540260FA85E71F8E9B
:07043000E7151EE51E70DF59
:070437008050ED64FE701C13
:10043E00851D20A820E2FE0520E5E6540260FA851F
:0A044E00E71F8EE7151EE51E70E99A
:02045800802FF3
:10045A00851B20851C21851D22AB20AA21A92212D9
:10046A00026BFE74012522F522E43521F521E5E629
:0F047A00540260FA85E71F8EE7151EE51E70DA43
:0B048900E5E6540260FA85E71FD2E9A7
:010494002245
:030023000207725F
:10077200C0E0C0D075D000C000309819C298E530F2
:10078200C39420501074572534F8A699E5340454C4
:100792001FF534053030991AC299E531D3940140DE
:1007A2000F74772533F8E6F599E53304541FF533D2
:0907B2001531D000D0D0D0E032A6
:10084600C2ACE4F533F535F531F532F534F530D291
:100856009CC29FD29E43878043D880EF24FC6013BE
:1008660024FE60091470127C037DF780107C037DE2
:10087600F3800A7C037DCC80047C037DE68DAAECA4
:02088600F5BAC1
:01088800224D
:100B3800E531D3942050F9C2ACE53170048F998027
:100B48000E74772535F8A607E53504541FF53505E5
:040B580031D2AC22C8
:030F2F00AF3022BE
:0A0EBE00E53170037F01227F00225E
:100C0500E53060FCC2AC74572532F8E6FFE53204E6
:080C1500541FF5321530D2AC7A
:010C1D0022B4
:0300000002049562
:0C049500787FE4F6D8FD7581960204DC47
:10026B00BB010689828A83E0225002E722BBFE0291
:09027B00E32289828A83E49322C4
:10028400BB010CE58229F582E5833AF583E022502F
:1002940006E92582F8E622BBFE06E92582F8E22279
:0D02A400E58229F582E5833AF583E4932293
:1002B100BB010689828A83F0225002F722BBFE012C
:0202C100F32226
:1002C300EB9FF5F0EA9E42F0E99D42F0EC6480C8B2
:0602D30064809845F02252
:1002D900EB9FF5F0EA9E42F0E99D42F0E89C45F07B
:0102E90022F2
:0C02EA00ECF0A3EDF0A3EEF0A3EFF02287
:1002F600A8828583F0D083D08212030D12030D12DB
:10030600030D12030DE473E493A3C583C5F0C583FF
:10031600C8C582C8F0A3C583C5F0C583C8C582C851
:0103260022B4
:100C7900E4FFFE12026B600C0FEF70010E09E970C0
:050C8900F20A80EF22D9
:1004A10002019AE493A3F8E493A34003F68001F2D6
:1004B10008DFF48029E493A3F85407240CC8C3335C
:1004C100C4540F4420C8834004F456800146F6DF2B
:1004D100E4800B0102040810204080900CE8E47EC7
:1004E100019360BCA3FF543F30E509541FFEE49320
:1004F100A360010ECF54C025E060A840B8E493A3E7
:10050100FAE493A3F8E493A3C8C582C8CAC583CA11
:10051100F0A3C8C582C8CAC583CADFE9DEE780BEC9
:010CF70000FC
:00000001FF
