:100003005F6C656E677468203E2054585F504143AF
:100013004B45545F4C454E20210D0A008E89BED6B8
:100D2700012C006042000AF3BBEC1FA60F0CA7EED4
:100D37000C28B2966E5F07421F8285000029532454
:100D47009E8091ED5B982555E221F2F3C6F7CE130D
:100D5700870000BA1C5460BB8553F3C3EB0382FBC7
:100D67001A3B47D150F27B0000012F0001290043B5
:0B0D77000000021A5043004C25262704
:020DD5008D137C
:100DD700E4FDFCAF131513EF603F751480E5146055
:100DE7002FEC30E70FED25E0FDEC33FC63052163C5
:100DF70004108007ED25E0FDEC33FC120144551487
:100E07006006630521630410E514C313F51480CD50
:0D0E1700740129F9E43AFA80BAAE04AF057F
:010E240022AB
:0610EE008B0D8A0E890F34
:1010F400ED7E0029F9EE3AFAE924FEF9EA34FF8B91
:1011040010F5118912AA0EA90FED24FEFD120DD5BA
:0C111400AB10AA11A912EE8FF01202130A
:0111200022AC
:10100A00E4FEEF30E7010EEF30E603430602EF306D
:10101A00E503430604EF30E403430608EF30E30335
:10102A00430610EF30E203430620EF30E1034306A4
:0A103A0040EF30E003430680AF06EC
:011044002289
:0816B40012100AEF4402FF22AC
:10139000E4FEEEC394035013EE75F016A4240AF590
:0B13A00082E43400F583EFF00E80E7DC
:0113AB00221F
:1003E200E4FEEEC394034003020508752F02AC2F0E
:1003F200052FEE75F016A4240AF582E43400F58385
:10040200E5822CF582E43583F583EFF0AC2F052FDE
:10041200EE75F016A4240AF582E43400F583E58231
:100422002CF582E43583F583EDF0AC2F052FEE75C4
:10043200F016A4240AF582E43400F583E5822CF553
:1004420082E43583F583EBF0AC2F052FEE75F016C1
:10045200A4240AF582E43400F583E5822CF582E4D3
:100462003583F583E510F0AC2F052FEE75F016A459
:10047200240AF582E43400F583E5822CF582E43522
:1004820083F583E511F0AC2F052FEE75F016A42449
:100492000AF582E43400F583E5822CF582E43583A3
:1004A200F583E512F0AC2F052FEE75F016A4240AA1
:1004B200F582E43400F583E5822CF582E43583F598
:1004C200837402F0AC2F052FEE75F016A4240AF502
:1004D20082E43400F583E5822CF582E43583F583EA
:1004E2007401F0AC2F052FEE75F016A4240AF582E4
:1004F200E43400F583E5822CF582E43583F58374D8
:0605020005F00E0203E407
:0105080022D0
:080509008B0D8A0E890F8D1085
:10051100E5297004AF2F8002AF298F29E4FFEFC3D3
:100521009403400302060785292FAB0DAA0EA90FDC
:10053100E51004FEAD2F052FEF75F016A4240AF582
:1005410082E43400F583E5822DF582E43583F58379
:10055100EEF0AE2F052FEF75F016A4240AF582E414
:100561003400F583E5822EF582E43583F58374FF4B
:10057100F0E4FEEEC39510502C120144FDAC2F05A2
:100581002FEF75F016A4240AF582E43400F583E513
:10059100822CF582E43583F583EDF0740129F9E4C9
:1005A1003AFA0E80CEAE2F052FEF75F016A4240A6D
:1005B100F582E43400F583E5822EF582E43583F596
:1005C100837455F0AE2F052FEF75F016A4240AF5AC
:1005D10082E43400F583E5822EF582E43583F583E8
:1005E1007455F0AE2F052FEF75F016A4240AF5828D
:1005F100E43400F583E5822EF582E43583F58374D6
:0606010055F00F02051F79
:0106070022D0
:080608008B138A1489158D166D
:10061000AD161516ED70030206DFAB130515E515D3
:10062000AA147002051414F9120144FFE4FEEEC38B
:10063000940850DCAB17AA18A919120144FDC41381
:1006400013135401FD120144FC25E012018AAB177B
:10065000AA18A91990000112015D30E7081201449F
:10066000440112018AAB17E5192401F9E43518FA9F
:10067000120144FC25E012018AAB17AA18A91990AF
:10068000000212015D30E70FE92401F9E43AFA12A1
:100690000144440112018AAB17E5192402F9E4353B
:1006A00018FA120144FC25E012018AEF54016D6032
:1006B00026AB17E5192402F9E43518FA120144644F
:1006C0005B12018AAB17E5192401F9E43518FA1217
:0F06D0000144640612018A0EEFC313FF02062EC7
:0106DF0022F8
:060F8C008B138A14891585
:100F9200AF051DEF60337F01EF6021E51730E710E9
:100FA200631711AB13AA14A9151201446F12018A17
:100FB200E51725E0F517EF25E0FF80DC7401251524
:090FC200F515E43514F51480C79F
:010FCB002203
:0809B7008B0D8A0E890F8D10D3
:1009BF00E51024FDF512C003C002C0017E0029F925
:1009CF00EE3A8B17F5188919D001D002D003AD126A
:1009DF00120608E4FCECC394035028AB0DAA0EA931
:1009EF000F85128275830012015DFF12100AAB0D85
:1009FF00AA0EA90F851282758300EF12019C0C05B8
:100A0F001280D2AF111216B48F17AB0DAA0EA90F09
:100A1F00AD10120F8CE4FCECC395105024AB0DAA53
:100A2F000EA90F8C8275830012015DFF12100AABA5
:100A3F000DAA0EA90F8C82758300EF12019C0C80FA
:010A4F00D6D0
:010A50002283
:101080008F0C74002FF582E43400F583E0FF121416
:1010900028E52FD394165016E50C75F016A4240AF3
:1010A000F9740035F0FA7B01AD2F1216D4227BFFC4
:0810B0007A00790312117F227E
:06117F008B0D8A0E890FA2
:1011850012146C8F11E4F510E510C395115017ABCF
:101195000DAA0EA90F85108275830012015DFF123D
:0611A50012F0051080E2CB
:0111AB002221
:10145600759460E4F5937590FF759FD5759FD65387
:0614660080FB5380FD2213
:100026007F0E1214FBE4FF1215E0E4FF12155AE4EA
:10003600FF12150BE4FF12151B7F031215697F01D2
:0400460012153B2232
:101045008E0C8F0DC3E50D940AE50C94005014E445
:10105500FCFDFBFA7901F8C31202325006750C80CB
:10106500750D00E4FF1216277F01121627E50D24E2
:0B107500FFFFE50C34FFFE1214A62262
:100B5E007BFF7A00791F780C7C007D007E007F047D
:100B6E0012011EAF0C12100A8F0CAF0D12100A8F4D
:100B7E000DAF0E12100A8F0EAF0F12100A8F0FD27A
:100B8E00EA7FFF120D83E4FDFF120C51E4FF1212F7
:100B9E007E900000E0FF121428E4FF120EBE7F03C9
:100BAE00121314E4FF120F057F041213DFE4FF1279
:100BBE0011AC7B007A00790C7F06120FCCE4FDFCA1
:0D0BCE00FF1212CA7F011212A4D2B9D2AFD9
:010BDB0022F7
:10112100E4FF1216277F011215D47F031215787F71
:10113100A27E291210457F021214EBE4FF1214DB88
:101141007F01121627E5AD20E7FBE5AD30E7FB2275
:10091200439060E59020E5089000037402F0801295
:10092200E59020E6089000037403F08005E490004F
:1009320003F09000047402F0A3E52AF0A3E52BF083
:100942007B017A0079037D061210EE7F421213902A
:100952007510477511467512457B487D597F6012A7
:1009620003E27B017A0079037D06120509E4F50CA6
:10097200E50CC39403503DE52F24FBFFE50C75F015
:1009820016A4240BF582E43400F583EFF0E50C7530
:10099200F016A4240AF9740035F0FA7B01744C2590
:1009A2000CF582E43400F583E0F511AD2F1209B79E
:0409B200050C80BCF4
:0109B600221E
:1006E00090004F12026500002A2F12145612112199
:1006F0007F04120F491215BCEFB402F97F61121288
:10070000F0120026120B5E7F007E011216DC9000B4
:100710004FE0FCA3E0FDA3E0FEA3E0FFE4FAF9F85C
:10072000EF2401FFEA3EFEE93DFDE83CFC90004F6E
:100730001202591216ABE47F307E2AFDFC90004F66
:10074000E0F8A3E0F9A3E0FAA3E0FBC312024870CB
:10075000201215F81216EFEF70FA1217178F2A12DF
:1007600017148F2B90004F12026500000000120931
:100770001275A404E4F5A4F50AE50AC39403508EA7
:05078000AF0A12108019
:0E078500750B14D2E8AF0B150BEF70F9C2E83C
:100793009000097401F0900009E070FA050A80D610
:0107A3002233
:03004B00020CC3E1
:100CC300C0E0C0F0C083C082C0D075D000C000C0F7
:0D0CD30001C002C003C004C005C006C00778
:100CE0001216048F08E50830E60B121651EF60FA71
:100CF000900009E4F0E50830E505900009E4F0E52E
:0C0D00000830E408900009E4F012168DA1
:100D0C00D007D006D005D004D003D002D001D0003B
:0B0D1C00D0D0D082D083D0F0D0E032E5
:040ADD008E448F456F
:100AE1007C277D101201BE7C007D0A1201BEED241F
:100AF10030F546FF1212F0AE44AF457C037DE8129B
:100B010001BE7C007D0A1201BEED2430F546FF12C4
:100B110012F0AE44AF457C007D641201BE7C007DC5
:100B21000A1201BEED2430F546FF1212F0AE44AFB9
:100B3100457C007D0A1201BE7C007D0A1201BEEDDA
:100B41002430F546FF1212F0AE44AF457C007D0A19
:0C0B51001201BEED2430F546FF1212F038
:010B5D002275
:0F154B000000000000EF1F70011E144E70F2220E
:10120300AD07AC067FFA7E0012154B7FFA7E001203
:10121300154B7FFA7E0012154B7FFA7E0012154B99
:0A122300ED1D70011C144C70DB225D
:1014DB00EF6009E5A3448054F7F5A32253A37722C9
:10149400EF5401FFC4333354C0FFE5A354B74FF5F1
:0214A400A32281
:1014EB00EF5403FFC454F0FFE5A354C74FF5A322F9
:0B15BC00E5AD30E3047F0280027F01F8
:0115C7002201
:0C15C800EF5407FFE5A354F04FF5A322F9
:0616E300E5AD5480FF227A
:0616E900E5AD5440FF22B4
:0C15D400EF5407FFE5AD54F84FF5AD22D1
:04170D0043B31022B0
:0B161C00EF600443B3082253B3F72231
:0E157800EF25E05406FFE5B354F94FF5B3221A
:0B162700EF600443B3012253B3FE2226
:1014A600E5B35406FD53B3F9EFF5B4EEF5B5ED42E9
:0114B600B382
:0114B7002212
:10133500E5B35406FD53B3F9AFB5AB077A00EB7BC4
:0E13450000FAAFB4EFFBE4ED42B3AE02AF032B
:011353002277
:10135400E5B35408FD53B3F7AFABAB077A00EB7BAF
:0E13640000FAAFB6EFFBE4ED42B3AE02AF030A
:011372002258
:03171100AFAC2258
:1014FB00EF25E025E0543CFFE5D354C34FF5D32251
:0C15E000EF5403FFE5D354FC4FF5D32279
:0F155A00EFC4333354C0FFE5D2543F4FF5D222D4
:10150B00EFC43354E05420FFE5D254DF4FF5D22221
:10151B00EF25E025E0541CFFE5D254E34FF5D22232
:10152B00EF25E025E0541CFFE5D254E34FF5D22222
:0C15EC00EF5403FFE5D254FC4FF5D2226F
:0F156900EFC4333354C0FFE5D1543F4FF5D122C7
:10153B00EFC43354E05420FFE5D154DF4FF5D122F3
:0B15F8007F0143D380AE071FEE70FAA6
:0116030022C4
:03171400AFD5222C
:03171700AFD4222A
:0616EF00E5D35440FF2288
:1014CA00E5D154187E007803CEC313CE13D8F9FFA2
:0114DA0022EF
:0A163D008FE7E5E630E1FBAFE7229E
:0716DC00EFF5AFEEF5AF22C0
:0816AB00AFAFAEAF8FAF8EAF01
:0116B3002214
:02127E008F10CF
:10128000E4FF1213AC8F11E510B40109AF11EF4464
:1012900001F5118007AF11EF54FEF511AD11E4FF18
:0312A000121373B3
:0112A3002228
:0212A4008F10A9
:1012A600E4FF1213AC8F11E510B40109AF11EF443E
:1012B60002F5118007AF11EF54FDF511AD11E4FFF2
:0312C6001213738D
:0112C9002202
:020F05008F104B
:100F0700E4FF1213AC8F11E51014601014601D2458
:100F1700027027AF11EF54F7F511801EAF11EF44A0
:100F270008F511AF11EF54FBF511800EAF11EF4427
:100F370008F511AF11EF4404F511AD11E4FF1213D9
:010F47007336
:010F48002286
:040BDC008F478D486A
:100BE000E4FF1213AC8F49E54724FB602314603DFA
:100BF00024027055E54860047F0080027F01EF54B5
:100C000001FFC454F0FFAE49EE54EF4FF54980396F
:100C1000E54860047F0080027F01EF5401FFC43388
:100C200054E0FFAE49EE54DF4FF549801CE54860C3
:100C3000047F0080027F01EF5401FFC4333354C0AE
:100C4000FFAE49EE54BF4FF549AD49E4FF121373AF
:010C50002281
:0B1604007D707F07121373EF5470FF1E
:01160F0022B8
:1013C6007D707F07121373EF5470F5527F07121367
:0813D600ACEF540F4252AF527C
:0113DE0022EC
:1014B8007401A807088002C333D8FCFD7F07121304
:0214C80073228D
:0816BC00121697EF5470FF2293
:040C51008F108D1162
:100C55007F021213AC8F127F011213AC8F13E510B4
:100C650024FA5006240760388045AF107401A807A0
:100C7500088002C333D8FC4212E5116011AF10742D
:100C850001A807088002C333D8FC42138021AF10A6
:100C95007401A807088002C333D8FCF45213800FEF
:100CA50075123FE511600575133F8003E4F513AD3B
:0D0CB500127F02121373AD137F011213732F
:010CC200220F
:020D83008F10CF
:100D85007F021213AC8F117F011213AC8F12E51085
:100D950024FA5006240760248027AF107401A807A1
:100DA500088002C333D8FCF45211AF107401A807B0
:100DB500088002C333D8FCF452128005E4F511F51E
:0F0DC50012AD117F02121373AD127F011213735F
:010DD40022FC
:100FCC008F108B118A128913E51014600A24FB50C0
:100FDC001A6004240670261216478F18E510242A6E
:100FEC00FFAB11AA12A91312085D22E510240AFF07
:0E0FFC00AB11AA12A913120144FD12137322A5
:1010B8008F408B418A428943E54014600824FB60D5
:1010C800042406700CAB41AA42A943AF4012029611
:1010D80022E540240AFF1213ACAB41AA42A943EF10
:0610E80012018A7F0122C3
:0212CA00AB0770
:1012CC00EC540FFFC454F0FFAE10EE540F4FF5105A
:1012DC00EB540FFFAE10EE54F04FF510AD107F0431
:0312EC0012137367
:0112EF0022DC
:1013DF00E4F510EF24FE5403FFAE10EE54FC4FF56E
:0813EF0010AD107F031213730F
:0113F70022D3
:0A1647007F031213ACEF2402FF2210
:0816C400EF2411FF1213732241
:0207A4008F368E
:1007A6007F021213AC8F377F011213AC8F38E536F8
:1007B6001460231460341460491460601460732458
:1007C600056003020850AF37EF5401F539AF38EF33
:1007D6005401F53A8079AF37EFC3135401F539AFB9
:1007E60038EFC3135401F53A8065AF37EF1313544E
:1007F6003F5401F539AF38EF1313543F5401F53A1E
:10080600804DAF37EF131313541F5401F539AF382A
:10081600EF131313541F5401F53A8033AF37EFC467
:10082600540F5401F539AF38EFC4540F5401F53A5B
:10083600801DAF37EFC41354075401F539AF38EFB5
:10084600C41354075401F53A8005E4F539F53AE541
:060856003A25E02539FF00
:01085C002279
:0616F5007F081213AC2275
:101411007F081213ACEF54F0FFE4C4F854F0C8682D
:07142100EFC4540F48FF2245
:100E2500EF14601914601F14602514602B146031D1
:100E3500240570367F111213AC8F5380307F121248
:100E450013AC8F5380277F131213AC8F53801E7FF3
:100E5500141213AC8F5380157F151213AC8F53806A
:0F0E65000C7F161213AC8F538003E4F553AF5379
:010E7400225B
:10142800E4F510EF547FFFAE10EE54804FF510AD89
:06143800107F0512137382
:01143E00228B
:021314008F1038
:101316007F061213AC8F11E5105403FF25E0FFAED4
:0E13260011EE54F94FF511AD117F061213733D
:011334002296
:020EBE008F1093
:100EC0007F061213AC8F11E510601424FE7020AF62
:100ED00011EF4420F511AF11EF54F7F511801EAF5B
:100EE00011EF54DFF511AF11EF54F7F511800EAF8C
:100EF00011EF54DFF511AF11EF4408F511AD117F7B
:040F0000061213734F
:010F040022CA
:0A1651007F171213ACEF5401FF22C3
:0C1610007F171213ACEFC3135401FF222C
:0D15A2007F171213ACEFC4540F5401FF2249
:0E1586007F171213ACEFC41354075401FF2259
:10143F007F171213ACEF5430FFE4C4F854F0C868B0
:07144F00EFC4540F48FF2217
:0A165B007F171213ACEF5403FF22B7
:0616FB007F171213AC2260
:0A1665007F081213ACEF540FFF22B0
:0A166F007F091213ACEF5401FF22B3
:01004A002293
:0C15AF00EF543FF554AD547F1C12137331
:0115BB00220D
:0211AC008F10A2
:1011AE007F1D1213AC8F11E51060047F0180027F4A
:1011BE0000EF5401FF25E025E0FFAE11EE54FB4F8A
:0911CE00F511AD117F1D12137320
:0111D70022F5
:02122D008F4AE6
:10122F007F1D1213AC8F4BE54A60047F0180027F54
:10123F0000EF5401FF25E0FFAE4BEE54FD4FF54B91
:07124F00AD4B7F1D1213736C
:011256002275
:021257008F4CBA
:101259007F1D1213AC8F4DE54C60047F0180027F26
:1012690000EF5401FFAE4DEE54FE4FF54DAD4D7FED
:041279001D121373BC
:01127D00224E
:0816CC008D187FA012085D22B9
:0816D4008D187FB012085D22A1
:0B163200EF44A8FF853F1812085D225E
:061701007F601213AC2210
:061707007F081202962289
:0E159400121697EF540EFFE4C313EF13FF225D
:0A167900C2E97FE312163DD2E92218
:101481001216FB7E00EF54407806CEC313CE13D85C
:03149100F9FF223E
:0A168300C2E97FE212163DD2E9220F
:0A168D00C2E97FE112163DD2E92206
:09169700C2E97FFF12163DD2E901
:0116A0002227
:0211D8008F4E38
:1011DA007F061213AC8F4FE54E60047F0180027FB9
:1011EA0000EF5401FFC454F0FFAE4FEE54EF4FF539
:0811FA004FAD4F7F0612137385
:0112020022C9
:021151008F50BD
:101153007F061213AC8F51E55060047F0180027F3C
:1011630000EF5401FFC43333335480FFAE51EE54C8
:0B1173007F4FF551AD517F0612137342
:01117E00224E
:1013AC00C2E98FE7E5E6540260FAAFE7E4F5E7E55A
:0913BC00E6540260FAAFE7D2E941
:0113C5002205
:10137300C2E9EF2420F5E7E5E6540260FAAFE78D12
:0C138300E7E5E6540260FA85E714D2E9C1
:01138F00223B
:080296008F1D8B1E8A1F8920B9
:10029E00752501851E23E51D14600C24FB600824C2
:1002AE00FE6017240870361216478F218F22C2E97E
:1002BE00E51D240AFF12163D80281215948F1DE5A8
:1002CE001DC3940750101217018F218F22C2E97F90
:1002DE006112163D800CE4F522F5218005E4F5222D
:0602EE00F521E523702B51
:1002F400852026E4F5E7E5257008A826A62405262A
:100304008003E4F525E5E6540260FA85E724152127
:08031400E52170DFA826A624F4
:09031C000203D9E5236401703DE0
:10032500851F26852027E4F5E7E5257013852782B7
:10033500852683E524F00527E52770020526800339
:10034500E4F525E5E6540260FA85E7241521E52163
:0B03550070D4852782852683E524F004
:080360008077E52364FE702C98
:10036800852026E4F5E7E5257009A826E524F205A9
:10037800268003E4F525E5E6540260FA85E72415AE
:0A03880021E52170DEA826E524F22D
:020392008045A4
:10039400851E26851F27852028E4F5E7E5257018A6
:1003A400AB26AA27A928E52412018A74012528F579
:1003B40028E43527F5278003E4F525E5E6540260B3
:1003C400FA85E7241521E52170CFAB26AA27A928B1
:0503D400E52412018A7E
:0803D900D2E9E51DFEE522FF5B
:0103E10022F9
:06085D008B158A168917B5
:09086300AD15C2E98FE7ED701C30
:10086C0085171AA81AE6FE051AE5E6540260FA8501
:0A087C00E7198EE71518E51870E97A
:07088600807EED6401702982
:10088D0085161A85171B851B82851A83E0FE051BAD
:10089D00E51B7002051AE5E6540260FA85E7198E2C
:0708AD00E71518E51870DFE4
:0708B4008050ED64FE701C92
:1008BB0085171AA81AE2FE051AE5E6540260FA85B6
:0A08CB00E7198EE71518E51870E92B
:0208D500802F72
:1008D70085151A85161B85171CAB1AAA1BA91C128E
:1008E7000144FE7401251CF51CE4351BF51BE5E6E8
:0F08F700540260FA85E7198EE71518E51870DAD4
:0B090600E5E6540260FA85E719D2E92B
:0109110022C3
:03002300020E7555
:100E7500C0E0C0D075D000C000309819C298E530E8
:100E8500C39420501074552534F8A699E5340454BC
:100E95001FF534053030991AC299E531D3940140D4
:100EA5000F74752533F8E6F599E53304541FF533CA
:090EB5001531D000D0D0D0E0329C
:100F4900C2ACE4F533F535F531F532F534F530D287
:100F59009CC29FD29E43878043D880EF24FC6013B4
:100F690024FE60091470127C037DF780107C037DD8
:100F7900F3800A7C037DCC80047C037DE68DAAEC9A
:020F8900F5BAB7
:010F8B002243
:1012F000E531D3942050F9C2ACE53170048F998068
:101300000E74752535F8A607E53504541FF5350527
:0413100031D2AC2208
:03171A00AF3022CB
:0A16A100E53170037F01227F002273
:1013F800E53060FCC2AC74552532F8E6FFE53204EE
:08140800541FF5321530D2AC7F
:0114100022B9
:03000000020A51A0
:0C0A5100787FE4F6D8FD758194020A98C5
:10004E00E709F608DFFA8046E709F208DFFA803E94
:10005E0088828C83E709F0A3DFFA8032E309F60881
:10006E00DFFA8078E309F208DFFA807088828C83E9
:10007E00E309F0A3DFFA806489828A83E0A3F6089D
:10008E00DFFA805889828A83E0A3F208DFFA804C77
:10009E0080D280FA80C680D4806980F2803380104E
:1000AE0080A680EA809A80A880DA80E280CA8033B7
:1000BE0089828A83ECFAE493A3C8C582C8CCC5832F
:1000CE00CCF0A3C8C582C8CCC583CCDFE9DEE780FF
:1000DE000D89828A83E493A3F608DFF9ECFAA9F07E
:1000EE00EDFB2289828A83ECFAE0A3C8C582C8CCD4
:1000FE00C583CCF0A3C8C582C8CCC583CCDFEADEED
:10010E00E880DB89828A83E493A3F208DFF980CC4E
:10011E0088F0EF60010E4E60C388F0ED2402B40447
:10012E000050B9F582EB2402B4040050AF232345EE
:06013E00822390009E7375
:10014400BB010689828A83E0225002E722BBFE02B9
:09015400E32289828A83E49322EC
:10015D00BB010CE58229F582E5833AF583E0225057
:10016D0006E92582F8E622BBFE06E92582F8E222A1
:0D017D00E58229F582E5833AF583E49322BB
:10018A00BB010689828A83F0225002F722BBFE0154
:02019A00F3224E
:10019C00F8BB010DE58229F582E5833AF583E8F099
:1001AC00225006E92582C8F622BBFE05E92582C845
:0201BC00F2222D
:1001BE00BC000BBE0029EF8DF084FFADF022E4CC25
:1001CE00F875F008EF2FFFEE33FEEC33FCEE9DECEE
:1001DE00984005FCEE9DFE0FD5F0E9E4CEFD22ED34
:1001EE00F8F5F0EE8420D21CFEADF075F008EF2F7E
:1001FE00FFED33FD4007985006D5F0F222C398FD6F
:05020E000FD5F0EA220B
:10021300BB010A89828A83F0E5F0A3F0225006F736
:0F02230009A7F01922BBFE06F3E5F009F3192233
:10023200EB9FF5F0EA9E42F0E99D42F0EC6480C843
:0602420064809845F022E3
:10024800EB9FF5F0EA9E42F0E99D42F0E89C45F00C
:010258002283
:0C025900ECF0A3EDF0A3EEF0A3EFF02218
:10026500A8828583F0D083D08212027C12027C1290
:10027500027C12027CE473E493A3C583C5F0C583B5
:10028500C8C582C8F0A3C583C5F0C583C8C582C8E3
:010295002246
:10146C00E4FFFE120144600C0FEF70010E09E970ED
:05147C00F20A80EF22DE
:100A5D000206E0E493A3F8E493A34003F68001F2C9
:100A6D0008DFF48029E493A3F85407240CC8C3339A
:100A7D00C4540F4420C8834004F456800146F6DF69
:100A8D00E4800B0102040810204080900D27E47EC5
:100A9D00019360BCA3FF543F30E509541FFEE4935E
:100AAD00A360010ECF54C025E060A840B8E493A325
:100ABD00FAE493A3F8E493A3C8C582C8CAC583CA50
:100ACD00F0A3C8C582C8CAC583CADFE9DEE780BE08
:010D82000070
:00000001FF
