:100003005F6C656E677468203E2054585F504143AF
:100013004B45545F4C454E20210D0A008E89BED6B8
:100D2E00012B006042000AF3BBEC1FA60F0CA7EECE
:100D3E000C28B2966E5F07421F828500002953244D
:100D4E009E8091ED5B982555E221F2F3C6F7CE1306
:100D5E00870000BA1C5460BB8553F3C3EB0382FBC0
:100D6E001A3B47D150F27B0000012E0001280043B0
:0B0D7E000000021A5043004C252627FD
:020DDC008D1276
:100DDE00E4FDFCAF121512EF603F751380E5136052
:100DEE002FEC30E70FED25E0FDEC33FC63052163BE
:100DFE0004108007ED25E0FDEC33FC120144551381
:100E0E006006630521630410E513C313F51380CD4B
:0D0E1E00740129F9E43AFA80BAAE04AF0578
:010E2B0022A4
:0610F5008B0C8A0D890E30
:1010FB00ED7E0029F9EE3AFAE924FEF9EA34FF8B8A
:10110B000FF5108911AA0DA90EED24FEFD120DDCB1
:0C111B00AB0FAA10A911EE8FF012021306
:0111270022A5
:10101100E4FEEF30E7010EEF30E603430602EF3066
:10102100E503430604EF30E403430608EF30E3032E
:10103100430610EF30E203430620EF30E10343069D
:0A10410040EF30E003430680AF06E5
:01104B002282
:0816BB00121011EF4402FF229E
:10139700E4FEEEC394035013EE75F016A4240AF589
:0B13A70082E43400F583EFF00E80E7D5
:0113B2002218
:1003E200E4FEEEC394034003020508752E02AC2E10
:1003F200052EEE75F016A4240AF582E43400F58386
:10040200E5822CF582E43583F583EFF0AC2E052EE0
:10041200EE75F016A4240AF582E43400F583E58231
:100422002CF582E43583F583EDF0AC2E052EEE75C6
:10043200F016A4240AF582E43400F583E5822CF553
:1004420082E43583F583EBF0AC2E052EEE75F016C3
:10045200A4240AF582E43400F583E5822CF582E4D3
:100462003583F583E50FF0AC2E052EEE75F016A45C
:10047200240AF582E43400F583E5822CF582E43522
:1004820083F583E510F0AC2E052EEE75F016A4244C
:100492000AF582E43400F583E5822CF582E43583A3
:1004A200F583E511F0AC2E052EEE75F016A4240AA4
:1004B200F582E43400F583E5822CF582E43583F598
:1004C200837402F0AC2E052EEE75F016A4240AF504
:1004D20082E43400F583E5822CF582E43583F583EA
:1004E2007401F0AC2E052EEE75F016A4240AF582E6
:1004F200E43400F583E5822CF582E43583F58374D8
:0605020005F00E0203E407
:0105080022D0
:080509008B0C8A0D890E8D0F89
:10051100E5287004AF2E8002AF288F28E4FFEFC3D7
:100521009403400302060785282EAB0CAA0DA90EE1
:10053100E50F04FEAD2E052EEF75F016A4240AF585
:1005410082E43400F583E5822DF582E43583F58379
:10055100EEF0AE2E052EEF75F016A4240AF582E416
:100561003400F583E5822EF582E43583F58374FF4B
:10057100F0E4FEEEC3950F502C120144FDAC2E05A4
:100581002EEF75F016A4240AF582E43400F583E514
:10059100822CF582E43583F583EDF0740129F9E4C9
:1005A1003AFA0E80CEAE2E052EEF75F016A4240A6F
:1005B100F582E43400F583E5822EF582E43583F596
:1005C100837455F0AE2E052EEF75F016A4240AF5AE
:1005D10082E43400F583E5822EF582E43583F583E8
:1005E1007455F0AE2E052EEF75F016A4240AF5828F
:1005F100E43400F583E5822EF582E43583F58374D6
:0606010055F00F02051F79
:0106070022D0
:080608008B128A1389148D1571
:10061000AD151515ED70030206DFAB120514E514D8
:10062000AA137002051314F9120144FFE4FEEEC38D
:10063000940850DCAB16AA17A918120144FDC41384
:1006400013135401FD120144FC25E012018AAB167C
:10065000AA17A91890000112015D30E708120144A1
:10066000440112018AAB16E5182401F9E43517FAA2
:10067000120144FC25E012018AAB16AA17A91890B2
:10068000000212015D30E70FE92401F9E43AFA12A1
:100690000144440112018AAB16E5182402F9E4353D
:1006A00017FA120144FC25E012018AEF54016D6033
:1006B00026AB16E5182402F9E43517FA1201446452
:1006C0005B12018AAB16E5182401F9E43517FA121A
:0F06D0000144640612018A0EEFC313FF02062EC7
:0106DF0022F8
:060F93008B128A13891481
:100F9900AF051DEF60337F01EF6021E51630E710E3
:100FA900631611AB12AA13A9141201446F12018A14
:100FB900E51625E0F516EF25E0FF80DC7401251420
:090FC900F514E43513F51380C79B
:010FD20022FC
:0809BE008B0C8A0D890E8D0FD0
:1009C600E50F24FDF511C003C002C0017E0029F920
:1009D600EE3A8B16F5178918D001D002D003AD1167
:1009E600120608E4FCECC394035028AB0CAA0DA92C
:1009F6000E85118275830012015DFF121011AB0C7A
:100A0600AA0DA90E851182758300EF12019C0C05B3
:100A16001180D2AF101216BB8F16AB0CAA0DA90E01
:100A2600AD0F120F93E4FCECC3950F5024AB0CAA48
:100A36000DA90E8C8275830012015DFF121011AB99
:100A46000CAA0DA90E8C82758300EF12019C0C80F6
:010A5600D6C9
:010A5700227C
:101087008F0B74002FF582E43400F583E0FF121410
:101097002FE52ED394165016E50B75F016A4240AE7
:1010A700F9740035F0FA7B01AD2E1216DB227BFFB7
:0810B7007A0079031211862270
:061186008B0C8A0D890E9E
:10118C001214738F10E4F50FE50FC395105017ABC5
:10119C000CAA0DA90E850F8275830012015DFF123A
:0611AC0012F7050F80E2BE
:0111B200221A
:10145D00759460E4F5937590FF759FD5759FD65380
:06146D0080FB5380FD220C
:100026007F0E121502E4FF1215E7E4FF121561E4D4
:10003600FF121512E4FF1215227F031215707F01BD
:04004600121542222B
:10104C008E0B8F0CC3E50C940AE50B94005014E442
:10105C00FCFDFBFA7901F8C31202325006750B80C5
:10106C00750C00E4FF12162E7F0112162EE50C24CF
:0B107C00FFFFE50B34FFFE1214AD2255
:100B65007BFF7A00791F780B7C007D007E007F0477
:100B750012011EAF0B1210118F0BAF0C1210118F3B
:100B85000CAF0D1210118F0DAF0E1210118F0ED26A
:100B9500EA7FFF120D8AE4FDFF120C58E4FF1212E2
:100BA50085900000E0FF12142FE4FF120EC57F03AD
:100BB50012131BE4FF120F0C7F041213E6E4FF125D
:100BC50011B37B007A00790B7F06120FD3E4FDFC8D
:0D0BD500FF1212D17F011212ABD2B9D2AFC4
:010BE20022F0
:10112800E4FF12162E7F011215DB7F0312157F7F55
:10113800227E2B12104C7F021214F2E4FF1214E2EA
:101148007F0112162EE5AD20E7FBE5AD30E7FB2267
:10091900439060E59020E5089000037402F080128E
:10092900E59020E6089000037403F08005E4900048
:1009390003F09000047408F0A3E529F0A3E52AF078
:100949007B017A0079037D061210F57F4212139715
:10095900750F477510467511457B487D597F6012A3
:1009690003E27B017A0079037D06120509E4F50BA0
:10097900E50BC39403503DE52E24FBFFE50B75F011
:1009890016A4240BF582E43400F583EFF0E50B752A
:10099900F016A4240AF9740035F0FA7B01744C2589
:1009A9000BF582E43400F583E0F510AD2E1209BE93
:0409B900050B80BCEE
:0109BD002217
:1006E00090004F12026500002A2F12145D1211288B
:1006F0007F04120F501215C3EFB402F97F6112127A
:10070000F7120026120B657F007E011216E390009F
:100710004FE0FCA3E0FDA3E0FEA3E0FFE4FAF9F85C
:10072000EF2401FFEA3EFEE93DFDE83CFC90004F6E
:100730001202591216B2E47F307E2AFDFC90004F5F
:10074000E0F8A3E0F9A3E0FAA3E0FBC312024870CB
:10075000201215FF1216F6EF70FA12171E8F2912CB
:10076000171B8F2A90004F1202650000000012092B
:1007700019052BE52BD394024003E4F52B75A40453
:08078000E4F5A4AF2B12108771
:0E078800750A14D2E8AF0A150AEF70F9C2E83C
:100796009000097401F0900009E0700302070E80D2
:0407A600F502070E43
:0107AA00222C
:03004B00020CCADA
:100CCA00C0E0C0F0C083C082C0D075D000C000C0F0
:0D0CDA0001C002C003C004C005C006C00771
:100CE70012160B8F08E50830E60B121658EF60FA5C
:100CF700900009E4F0E50830E505900009E4F0E527
:0C0D07000830E408900009E4F012169493
:100D1300D007D006D005D004D003D002D001D00034
:0B0D2300D0D0D082D083D0F0D0E032DE
:040AE4008E438F446A
:100AE8007C277D101201BE7C007D0A1201BEED2418
:100AF80030F545FF1212F7AE43AF447C037DE81290
:100B080001BE7C007D0A1201BEED2430F545FF12BE
:100B180012F7AE43AF447C007D641201BE7C007DB9
:100B28000A1201BEED2430F545FF1212F7AE43AFAD
:100B3800447C007D0A1201BE7C007D0A1201BEEDD4
:100B48002430F545FF1212F7AE43AF447C007D0A0E
:0C0B58001201BEED2430F545FF1212F72B
:010B6400226E
:0F1552000000000000EF1F70011E144E70F22207
:10120A00AD07AC067FFA7E001215527FFA7E0012F5
:10121A0015527FFA7E001215527FFA7E001215527D
:0A122A00ED1D70011C144C70DB2256
:1014E200EF6009E5A3448054F7F5A32253A37722C2
:10149B00EF5401FFC4333354C0FFE5A354B74FF5EA
:0214AB00A3227A
:1014F200EF5403FFC454F0FFE5A354C74FF5A322F2
:0B15C300E5AD30E3047F0280027F01F1
:0115CE0022FA
:0C15CF00EF5407FFE5A354F04FF5A322F2
:0616EA00E5AD5480FF2273
:0616F000E5AD5440FF22AD
:0C15DB00EF5407FFE5AD54F84FF5AD22CA
:0417140043B31022A9
:0B162300EF600443B3082253B3F7222A
:0E157F00EF25E05406FFE5B354F94FF5B32213
:0B162E00EF600443B3012253B3FE221F
:1014AD00E5B35406FD53B3F9EFF5B4EEF5B5ED42E2
:0114BD00B37B
:0114BE00220B
:10133C00E5B35406FD53B3F9AFB5AB077A00EB7BBD
:0E134C0000FAAFB4EFFBE4ED42B3AE02AF0324
:01135A002270
:10135B00E5B35408FD53B3F7AFABAB077A00EB7BA8
:0E136B0000FAAFB6EFFBE4ED42B3AE02AF0303
:011379002251
:03171800AFAC2251
:10150200EF25E025E0543CFFE5D354C34FF5D32249
:0C15E700EF5403FFE5D354FC4FF5D32272
:0F156100EFC4333354C0FFE5D2543F4FF5D222CD
:10151200EFC43354E05420FFE5D254DF4FF5D2221A
:10152200EF25E025E0541CFFE5D254E34FF5D2222B
:10153200EF25E025E0541CFFE5D254E34FF5D2221B
:0C15F300EF5403FFE5D254FC4FF5D22268
:0F157000EFC4333354C0FFE5D1543F4FF5D122C0
:10154200EFC43354E05420FFE5D154DF4FF5D122EC
:0B15FF007F0143D380AE071FEE70FA9F
:01160A0022BD
:03171B00AFD52225
:03171E00AFD42223
:0616F600E5D35440FF2281
:1014D100E5D154187E007803CEC313CE13D8F9FF9B
:0114E10022E8
:0A1644008FE7E5E630E1FBAFE72297
:0716E300EFF5AFEEF5AF22B9
:0816B200AFAFAEAF8FAF8EAFFA
:0116BA00220D
:021285008F0FC9
:10128700E4FF1213B38F10E50FB40109AF10EF4459
:1012970001F5108007AF10EF54FEF510AD10E4FF15
:0312A70012137AA5
:0112AA002221
:0212AB008F0FA3
:1012AD00E4FF1213B38F10E50FB40109AF10EF4433
:1012BD0002F5108007AF10EF54FDF510AD10E4FFEF
:0312CD0012137A7F
:0112D00022FB
:020F0C008F0F45
:100F0E00E4FF1213B38F10E50F14601014601D244C
:100F1E00027027AF10EF54F7F510801EAF10EF449C
:100F2E0008F510AF10EF54FBF510800EAF10EF4424
:100F3E0008F510AF10EF4404F510AD10E4FF1213D6
:010F4E007A28
:010F4F00227F
:040BE3008F468D4765
:100BE700E4FF1213B38F48E54624FB602314603DEE
:100BF70024027055E54760047F0080027F01EF54AF
:100C070001FFC454F0FFAE48EE54EF4FF54880396A
:100C1700E54760047F0080027F01EF5401FFC43382
:100C270054E0FFAE48EE54DF4FF548801CE54760BF
:100C3700047F0080027F01EF5401FFC4333354C0A7
:100C4700FFAE48EE54BF4FF548AD48E4FF12137AA4
:010C5700227A
:0B160B007D707F0712137AEF5470FF10
:0116160022B1
:1013CD007D707F0712137AEF5470F5517F0712135A
:0813DD00B3EF540F4251AF5170
:0113E50022E5
:1014BF007401A807088002C333D8FCFD7F071213FD
:0214CF007A227F
:0816C30012169EEF5470FF2285
:040C58008F0F8D105D
:100C5C007F021213B38F117F011213B38F12E50FA2
:100C6C0024FA5006240760388045AF0F7401A8079A
:100C7C00088002C333D8FC4211E5106011AF0F7429
:100C8C0001A807088002C333D8FC42128021AF0FA1
:100C9C007401A807088002C333D8FCF45212800FE9
:100CAC0075113FE510600575123F8003E4F512AD38
:0D0CBC00117F0212137AAD127F0112137A1C
:010CC9002208
:020D8A008F0FC9
:100D8C007F021213B38F107F011213B38F11E50F73
:100D9C0024FA5006240760248027AF0F7401A8079B
:100DAC00088002C333D8FCF45210AF0F7401A807AB
:100DBC00088002C333D8FCF452118005E4F510F519
:0F0DCC0011AD107F0212137AAD117F0112137A4D
:010DDB0022F5
:100FD3008F0F8B108A118912E50F14600A24FB50BE
:100FE3001A60042406702612164E8F17E50F242A62
:100FF300FFAB10AA11A91212086422E50F240AFFFD
:0E100300AB10AA11A912120144FD12137A2299
:1010BF008F3F8B408A418942E53F14600824FB60D3
:1010CF00042406700CAB40AA41A942AF3F1202960E
:1010DF0022E53F240AFF1213B3AB40AA41A942EF06
:0610EF0012018A7F0122BC
:0212D100AB0769
:1012D300EC540FFFC454F0FFAE0FEE540F4FF50F55
:1012E300EB540FFFAE0FEE54F04FF50FAD0F7F042D
:0312F30012137A59
:0112F60022D5
:1013E600E4F50FEF24FE5403FFAE0FEE54FC4FF569
:0813F6000FAD0F7F0312137A03
:0113FE0022CC
:0A164E007F031213B3EF2402FF2202
:0816CB00EF2411FF12137A2233
:0207AB008F3588
:1007AD007F021213B38F367F011213B38F37E535E6
:1007BD001460231460341460491460601460732451
:1007CD00056003020857AF36EF5401F538AF37EF28
:1007DD005401F5398079AF36EFC3135401F538AFB5
:1007ED0037EFC3135401F5398065AF36EF1313544A
:1007FD003F5401F538AF37EF1313543F5401F5391A
:10080D00804DAF36EF131313541F5401F538AF3726
:10081D00EF131313541F5401F5398033AF36EFC462
:10082D00540F5401F538AF37EFC4540F5401F53957
:10083D00801DAF36EFC41354075401F538AF37EFB1
:10084D00C41354075401F5398005E4F538F539E53D
:06085D003925E02538FFFB
:010863002272
:0616FC007F081213B32267
:101418007F081213B3EF54F0FFE4C4F854F0C8681F
:07142800EFC4540F48FF223E
:100E2C00EF14601914601F14602514602B146031CA
:100E3C00240570367F111213B38F5280307F12123B
:100E4C0013B38F5280277F131213B38F52801E7FE0
:100E5C00141213B38F5280157F151213B38F528057
:0F0E6C000C7F161213B38F528003E4F552AF526E
:010E7B002254
:10142F00E4F50FEF547FFFAE0FEE54804FF50FAD85
:06143F000F7F0512137A75
:011445002284
:02131B008F0F32
:10131D007F061213B38F10E50F5403FF25E0FFAEC8
:0E132D0010EE54F94FF510AD107F0612137A32
:01133B00228F
:020EC5008F0F8D
:100EC7007F061213B38F10E50F601424FE7020AF56
:100ED70010EF4420F510AF10EF54F7F510801EAF58
:100EE70010EF54DFF510AF10EF54F7F510800EAF89
:100EF70010EF54DFF510AF10EF4408F510AD107F79
:040F07000612137A41
:010F0B0022C3
:0A1658007F171213B3EF5401FF22B5
:0C1617007F171213B3EFC3135401FF221E
:0D15A9007F171213B3EFC4540F5401FF223B
:0E158D007F171213B3EFC41354075401FF224B
:101446007F171213B3EF5430FFE4C4F854F0C868A2
:07145600EFC4540F48FF2210
:0A1662007F171213B3EF5403FF22A9
:061702007F171213B32251
:0A166C007F081213B3EF540FFF22A2
:0A1676007F091213B3EF5401FF22A5
:01004A002293
:0C15B600EF543FF553AD537F1C12137A25
:0115C2002206
:0211B3008F0F9C
:1011B5007F1D1213B38F10E50F60047F0180027F3E
:1011C50000EF5401FF25E025E0FFAE10EE54FB4F84
:0911D500F510AD107F1D12137A14
:0111DE0022EE
:021234008F49E0
:101236007F1D1213B38F4AE54960047F0180027F48
:1012460000EF5401FF25E0FFAE4AEE54FD4FF54A8C
:07125600AD4A7F1D12137A5F
:01125D00226E
:02125E008F4BB4
:101260007F1D1213B38F4CE54B60047F0180027F1A
:1012700000EF5401FFAE4CEE54FE4FF54CAD4C7FE9
:041280001D12137AAE
:011284002247
:0816D3008D177FA012086422AC
:0816DB008D177FB01208642294
:0B163900EF44A8FF853E171208642252
:061708007F601213B32202
:06170E007F081202962282
:0E159B0012169EEF540EFFE4C313EF13FF224F
:0A168000C2E97FE3121644D2E9220A
:101488001217027E00EF54407806CEC313CE13D84D
:03149800F9FF2237
:0A168A00C2E97FE2121644D2E92201
:0A169400C2E97FE1121644D2E922F8
:09169E00C2E97FFF121644D2E9F3
:0116A7002220
:0211DF008F4D32
:1011E1007F061213B38F4EE54D60047F0180027FAD
:1011F10000EF5401FFC454F0FFAE4EEE54EF4FF533
:081201004EAD4E7F0612137A78
:0112090022C2
:021158008F4FB7
:10115A007F061213B38F50E54F60047F0180027F30
:10116A0000EF5401FFC43333335480FFAE50EE54C2
:0B117A007F4FF550AD507F0612137A36
:011185002247
:1013B300C2E98FE7E5E6540260FAAFE7E4F5E7E553
:0913C300E6540260FAAFE7D2E93A
:0113CC0022FE
:10137A00C2E9EF2420F5E7E5E6540260FAAFE78D0B
:0C138A00E7E5E6540260FA85E713D2E9BB
:011396002234
:080296008F1C8B1D8A1E891FBD
:10029E00752401851D22E51C14600C24FB600824C6
:1002AE00FE60172408703612164E8F208F21C2E979
:1002BE00E51C240AFF121644802812159B8F1CE59C
:1002CE001CC3940750101217088F208F21C2E97F8C
:1002DE0061121644800CE4F521F5208005E4F52129
:0602EE00F520E522702B53
:1002F400851F25E4F5E7E5247008A825A623052530
:100304008003E4F524E5E6540260FA85E72315202A
:08031400E52070DFA825A623F7
:09031C000203D9E5226401703DE1
:10032500851E25851F26E4F5E7E5247013852682BD
:10033500852583E523F00526E5267002052580033E
:10034500E4F524E5E6540260FA85E7231520E52067
:0B03550070D4852682852583E523F007
:080360008077E52264FE702C99
:10036800851F25E4F5E7E5247009A825E523F205AE
:10037800258003E4F524E5E6540260FA85E72315B1
:0A03880020E52070DEA825E523F231
:020392008045A4
:10039400851D25851E26851F27E4F5E7E5247018AD
:1003A400AB25AA26A927E52312018A74012527F57E
:1003B40027E43526F5268003E4F524E5E6540260B7
:1003C400FA85E7231520E52070CFAB25AA26A927B7
:0503D400E52312018A7F
:0803D900D2E9E51CFEE521FF5D
:0103E10022F9
:060864008B148A158916B1
:09086A00AD14C2E98FE7ED701C2A
:10087300851619A819E6FE0519E5E6540260FA85FE
:0A088300E7188EE71517E51770E976
:07088D00807EED640170297B
:1008940085151985161A851A82851983E0FE051AAD
:1008A400E51A70020519E5E6540260FA85E7188E28
:0708B400E71517E51770DFDF
:0708BB008050ED64FE701C8B
:1008C200851619A819E2FE0519E5E6540260FA85B3
:0A08D200E7188EE71517E51770E927
:0208DC00802F6B
:1008DE0085141985151A85161BAB19AA1AA91B1290
:1008EE000144FE7401251BF51BE4351AF51AE5E6E5
:0F08FE00540260FA85E7188EE71517E51770DAD0
:0B090D00E5E6540260FA85E718D2E925
:0109180022BC
:03002300020E7C4E
:100E7C00C0E0C0D075D000C000309819C298E52FE2
:100E8C00C39420501074542533F8A699E5330454B8
:100E9C001FF533052F30991AC299E530D3940140D0
:100EAC000F74742532F8E6F599E53204541FF532C7
:090EBC001530D000D0D0D0E03296
:100F5000C2ACE4F532F534F530F531F533F52FD286
:100F60009CC29FD29E43878043D880EF24FC6013AD
:100F700024FE60091470127C037DF780107C037DD1
:100F8000F3800A7C037DCC80047C037DE68DAAEC93
:020F9000F5BAB0
:010F9200223C
:1012F700E530D3942050F9C2ACE53070048F998063
:101307000E74742534F8A607E53404541FF5340524
:0413170030D2AC2202
:03172100AF2F22C5
:0A16A800E53070037F01227F00226D
:1013FF00E52F60FCC2AC74542531F8E6FFE53104EB
:08140F00541FF531152FD2AC7A
:0114170022B2
:03000000020A5899
:0C0A5800787FE4F6D8FD758193020A9FB8
:10004E00E709F608DFFA8046E709F208DFFA803E94
:10005E0088828C83E709F0A3DFFA8032E309F60881
:10006E00DFFA8078E309F208DFFA807088828C83E9
:10007E00E309F0A3DFFA806489828A83E0A3F6089D
:10008E00DFFA805889828A83E0A3F208DFFA804C77
:10009E0080D280FA80C680D4806980F2803380104E
:1000AE0080A680EA809A80A880DA80E280CA8033B7
:1000BE0089828A83ECFAE493A3C8C582C8CCC5832F
:1000CE00CCF0A3C8C582C8CCC583CCDFE9DEE780FF
:1000DE000D89828A83E493A3F608DFF9ECFAA9F07E
:1000EE00EDFB2289828A83ECFAE0A3C8C582C8CCD4
:1000FE00C583CCF0A3C8C582C8CCC583CCDFEADEED
:10010E00E880DB89828A83E493A3F208DFF980CC4E
:10011E0088F0EF60010E4E60C388F0ED2402B40447
:10012E000050B9F582EB2402B4040050AF232345EE
:06013E00822390009E7375
:10014400BB010689828A83E0225002E722BBFE02B9
:09015400E32289828A83E49322EC
:10015D00BB010CE58229F582E5833AF583E0225057
:10016D0006E92582F8E622BBFE06E92582F8E222A1
:0D017D00E58229F582E5833AF583E49322BB
:10018A00BB010689828A83F0225002F722BBFE0154
:02019A00F3224E
:10019C00F8BB010DE58229F582E5833AF583E8F099
:1001AC00225006E92582C8F622BBFE05E92582C845
:0201BC00F2222D
:1001BE00BC000BBE0029EF8DF084FFADF022E4CC25
:1001CE00F875F008EF2FFFEE33FEEC33FCEE9DECEE
:1001DE00984005FCEE9DFE0FD5F0E9E4CEFD22ED34
:1001EE00F8F5F0EE8420D21CFEADF075F008EF2F7E
:1001FE00FFED33FD4007985006D5F0F222C398FD6F
:05020E000FD5F0EA220B
:10021300BB010A89828A83F0E5F0A3F0225006F736
:0F02230009A7F01922BBFE06F3E5F009F3192233
:10023200EB9FF5F0EA9E42F0E99D42F0EC6480C843
:0602420064809845F022E3
:10024800EB9FF5F0EA9E42F0E99D42F0E89C45F00C
:010258002283
:0C025900ECF0A3EDF0A3EEF0A3EFF02218
:10026500A8828583F0D083D08212027C12027C1290
:10027500027C12027CE473E493A3C583C5F0C583B5
:10028500C8C582C8F0A3C583C5F0C583C8C582C8E3
:010295002246
:10147300E4FFFE120144600C0FEF70010E09E970E6
:05148300F20A80EF22D7
:100A64000206E0E493A3F8E493A34003F68001F2C2
:100A740008DFF48029E493A3F85407240CC8C33393
:100A8400C4540F4420C8834004F456800146F6DF62
:100A9400E4800B0102040810204080900D2EE47EB7
:100AA400019360BCA3FF543F30E509541FFEE49357
:100AB400A360010ECF54C025E060A840B8E493A31E
:100AC400FAE493A3F8E493A3C8C582C8CAC583CA49
:100AD400F0A3C8C582C8CAC583CADFE9DEE780BE01
:010D89000069
:00000001FF
